:020000040800F2
:100000000000022039A9000889A9000889A9000870
:1000100089A9000889A9000889A900080000000032
:1000200000000000000000000000000089A9000896
:1000300089A900080000000089A90008210C000817
:1000400089A9000889A9000889A9000889A90008C8
:1000500089A9000889A9000889A9000889A90008B8
:1000600089A9000889A9000889A9000889A90008A8
:1000700089A9000889A9000889A9000889A9000898
:1000800089A9000889A9000889A9000889A9000888
:1000900089A9000889A9000889A9000889A9000878
:1000A00089A9000889A9000889A9000889A9000868
:1000B00089A9000889A9000889A9000889A9000858
:1000C00089A9000889A9000889A9000889A9000848
:1000D00089A9000889A9000889A9000889A9000838
:1000E00089A9000889A9000889A9000889A9000828
:1000F00089A9000889A9000889A9000889A9000818
:1001000089A9000889A9000889A9000889A9000807
:1001100089A9000889A9000889A9000889A90008F7
:1001200089A9000889A9000889A9000889A90008E7
:1001300089A9000889A9000889A9000889A90008D7
:1001400089A9000889A9000889A90008310C0008BC
:1001500089A9000889A9000889A9000889A90008B7
:1001600089A9000889A9000889A9000889A90008A7
:1001700089A9000889A9000889A9000800000000D1
:0801800089A9000889A9000803
:1001880010B5054C237833B9044B13B10448AFF3C9
:1001980000800123237010BD9000002000000000A3
:1001A800B4AB000808B5034B1BB103490348AFF3D0
:1001B800008008BD0000000094000020B4AB0008D7
:1001C80053B94AB9002908BF00281CBF4FF0FF31B6
:1001D8004FF0FF3000F07AB9ADF1080C6DE904CEAC
:1001E80000F006F8DDF804E0DDE9022304B070470A
:1001F8002DE9F0478C460D460446089E002B51D148
:100208008A4217466DD9B2FA82FEBEF1000F0BD0B2
:10021800CEF1200C01FA0EF520FA0CFC02FA0EF7CA
:100228004CEA050C00FA0EF44FEA174A250CBCFB01
:10023800FAF81FFA87F90AFB18CC45EA0C4508FBBF
:1002480009F3AB420AD9ED1908F1FF3280F0238196
:10025800AB4240F22081A8F102083D44ED1AA4B255
:10026800B5FBFAF00AFB105544EA054400FB09F90E
:10027800A14509D9E41900F1FF3380F00A81A145AD
:1002880040F2078102383C44A4EB090440EA0840E4
:100298000021002E61D024FA0EF40023346073602C
:1002A800BDE8F0878B4207D9002E54D0002186E89C
:1002B80021000846BDE8F087B3FA83F1002940F031
:1002C8008E80AB4202D3824200F2FA80841A65EB38
:1002D80003050120AC46002E3FD086E81010BDE88B
:1002E800F08712B90127B7FBF2F7B7FA87FEBEF11C
:1002F800000F34D1EB1B3A0C1FFA87FC0121B3FB2A
:10030800F2F8250C02FB183345EA03450CFB08F309
:10031800AB4207D9ED1908F1FF3002D2AB4200F227
:10032800D1808046ED1AA3B2B5FBF2F002FB10555E
:1003380043EA05440CFB00FCA44507D9E41900F185
:10034800FF3302D2A44500F2B8801846A4EB0C048F
:1003580040EA08409DE731463046BDE8F087CEF1D7
:10036800200405FA0EF307FA0EF720FA04F83A0CFF
:1003780025FA04F448EA0308B4FBF2F14FEA1845F9
:1003880002FB11441FFA87FC45EA044501FB0CF304
:10039800AB4200FA0EF409D9ED1901F1FF3080F0F3
:1003A8008A80AB4240F2878002393D44EB1A1FFA3B
:1003B80088F5B3FBF2F002FB103345EA034500FB76
:1003C8000CF3AB4207D9ED1900F1FF386FD2AB42FD
:1003D8006DD902383D44EB1A40EA01418FE7C1F17B
:1003E800200722FA07F88B4005FA01F448EA0303CC
:1003F80020FA07FE4FEA134CFD404EEA040EB5FB07
:10040800FCF94FEA1E440CFB19551FFA83F844EA1D
:10041800054509FB08F4AC4202FA01F200FA01FAB8
:1004280008D9ED1809F1FF3043D2AC4241D9A9F1FE
:1004380002091D442D1B1FFA8EFEB5FBFCF00CFBB8
:1004480010554EEA054400FB08F8A04507D9E41802
:1004580000F1FF3529D2A04527D902381C4440EACB
:100468000940A4EB0804A0FB02894C45C6464D464A
:1004780015D312D056B1BAEB0E0364EB050404FA97
:1004880007F7CB401F43CC40376074600021BDE8BC
:10049800F0871846F8E69046E0E6C245EAD2B8EB9F
:1004A800020E69EB03050138E4E72846D7E7404622
:1004B80091E78146BEE7014678E702383C4445E7C4
:1004C800084608E7A8F102083D442BE7704700BF3B
:1004D80080B58CB000AF0023BB61714A704B1B6BB9
:1004E80043F0100313636E4B1B6B03F01003BB61E7
:1004F800BB6900237B616A4A694B1B6B43F00403A9
:100508001363674B1B6B03F004037B617B69002358
:100518003B61634A624B1B6B43F080031363604B80
:100528001B6B03F080033B613B690023FB605C4A63
:100538005B4B1B6B43F001031363594B1B6B03F0BD
:100548000103FB60FB680023BB60554A544B1B6BDF
:1005580043F002031363524B1B6B03F00203BB60AF
:10056800BB6800237B604E4A4D4B1B6B43F008036E
:1005780013634B4B1B6B03F008037B607B68002203
:100588000821484800F0F4FE01220121464800F005
:10059800EFFE00224FF21001444800F0E9FE082364
:1005A800FB6101233B6200237B620023BB6207F1EE
:1005B8001C0319463B4800F041FD0123FB61012360
:1005C8003B6200237B620023BB6207F11C031946D0
:1005D800354800F033FD0823FB6102233B6200230A
:1005E8007B620023BB620523FB6207F11C031946EB
:1005F8002D4800F023FD0123FB612D4B3B620023B6
:100608007B6207F11C0319462A4800F017FD0423F2
:10061800FB6100233B6200237B6207F11C03194640
:10062800254800F00BFD4FF48063FB6102233B6219
:1006380000237B620023BB620523FB6207F11C03D6
:1006480019461D4800F0FAFC4FF21003FB61012324
:100658003B6200237B620023BB6207F11C0319463F
:10066800124800F0EBFC2023FB6100233B620023CF
:100678007B6207F11C0319460C4800F0DFFC0223DB
:10068800FB610B4B3B6200237B6207F11C0319469D
:10069800044800F0D3FC00BF3037BD4680BD00BF22
:1006A800003802400010024000080240000C0240DE
:1006B80000001210000002400004024080B500AFA4
:1006C800134B144A1A60124B134A5A60104B0022FB
:1006D8009A600F4B0022DA600D4B4FF480421A618A
:1006E8000B4B00225A610A4B00229A61084B0022E8
:1006F800DA61074B00221A62054802F00DFA034638
:10070800002B03D04C21054800F0C2F900BF80BD82
:10071800F000002000540040A0860100CCAB000887
:1007280080B588B000AF78607B681B68124A934236
:100738001ED14FF41073FB6012233B6101237B61D0
:100748000023BB610423FB6107F10C0319460B4826
:1007580000F074FC0023BB60094A094B1B6C43F48E
:1007680000131364064B1B6C03F40013BB60BB68D7
:1007780000BF2037BD4680BD005400400004024041
:100788000038024080B500AF144B154A1A60134B6D
:100798004FF400725A60114B00229A600F4B0022EE
:1007A800DA600E4B4FF400721A610C4B0D4A5A6115
:1007B8000A4B00229A61094B0022DA61074B00229A
:1007C8001A62064802F088FA0346002B03D04C212F
:1007D800054800F05DF900BF80BD00BF440100205E
:1007E800003C004000770100E0AB000880B588B00D
:1007F80000AF78607B681B681A4A93422ED10023A9
:10080800BB60194A184B1B6C43F400431364164B26
:100818001B6C03F40043BB60BB681023FB6002231E
:100828003B6100237B610023BB610623FB6107F169
:100838000C0319460D4800F001FC4FF4A453FB606B
:1008480002233B6100237B610023BB610623FB611C
:1008580007F10C031946064800F0F0FB00BF2037EB
:10086800BD4680BD003C0040003802400000024008
:100878000008024080B582B000AFC7F804C009F094
:100888002BFD00220F49104808F0CCFF0346002B2F
:10089800F5D10A220D490E4809F00AF80346002B43
:1008A800EDD101224FF480510A4800F061FD00BFEC
:1008B800074809F0AEFB054809F0D5FB00BF08372B
:1008C800BD4680BD4C060020C0030020F4AB0008E4
:1008D8008C010020000C0240B0B58CB000AF07F1CD
:1008E8004003FB6200F0E0F900F04AF8FFF7F0FD82
:1008F800FFF7E4FEFFF746FF00F0D0F809F0D6FC5A
:1009080004F06EFB194B07F10C041D460FCD0FC404
:1009180095E80F0007C42370154A3B4607CA83E8C9
:10092800070007F12C039C46FFF7A4FF3B460A2269
:100938001946104808F0BCFF0346002B12D107F1F6
:100948000C010D4B1D220B4809F070F90346002BD2
:1009580008D1084809F05DFB01224FF4004107481F
:1009680000F006FD09F0B8FCFCE700BF00AC000889
:1009780020AC00088C010020BC030020000C0240C1
:1009880080B598B000AF0023BB603D4A3C4B1B6C60
:1009980043F0805313643A4B1B6C03F08053BB60E5
:1009A800BB6800237B60374A364B1B6843F480439F
:1009B8001360344B1B6803F480437B607B6801231E
:1009C8003B634FF480337B630223BB644FF48003A3
:1009D800FB6408233B654FF4A8737B650223BB6562
:1009E8000723FB6507F13003184602F04FFE034664
:1009F800002B03D0CE21244800F04AF80F23FB61D6
:100A080002233B6200237B624FF4A053BB624FF486
:100A18008053FB6207F11C030521184603F078F8A0
:100A28000346002B03D0DC21174800F031F80123DE
:100A3800FB60C0233B6102237B6107F10C0318466E
:100A480003F040FA0346002B03D0E4210E4800F0DF
:100A58001FF803F017FA02460C4BA3FB02239B096D
:100A6800184600F0B4FA042000F0BEFA0022002173
:100A78004FF0FF3000F081FA00BF6037BD4680BDFF
:100A880000380240007000402CAC0008D34D6210C2
:100A980080B483B000AF78603960FEE780B500AFFE
:100AA800184B194A1A60174B4FF482725A60154B4B
:100AB80000229A60134B0022DA60124B00221A615E
:100AC800104B00225A610F4B4FF400729A610D4B84
:100AD8000022DA610B4B00221A620A4B00225A628A
:100AE800084B00229A62074B0A22DA62054803F093
:100AF80027FB0346002B03D04F210448FFF7C8FF0C
:100B080000BF80BDF00500200030014040AC000867
:100B180080B588B000AF78607B681B68124A934242
:100B28001DD10023BB60114A104B5B6C43F480530A
:100B380053640E4B5B6C03F48053BB60BB68E023CB
:100B4800FB6002233B6100237B610023BB6105231B
:100B5800FB6107F10C031946054800F06FFA00BF66
:100B68002037BD4680BD00BF00300140003802403C
:100B78000000024080B582B000AF00237B60254AA8
:100B8800244B5B6C43F480435364224B5B6C03F44B
:100B980080437B607B6800233B601E4A1D4B1B6CB7
:100BA80043F0805313641B4B1B6C03F080533B6072
:100BB8003B68072000F0D6F9002200216FF00B00F7
:100BC80000F0DBF9002200216FF00A0000F0D5F9EF
:100BD800002200216FF0090000F0CFF90022002167
:100BE8006FF0040000F0C9F9002200216FF0030043
:100BF80000F0C3F9002200216FF0010000F0BDF9F8
:100C0800002200214FF0FF3000F0B7F900BF08378D
:100C1800BD4680BD0038024080B500AF00F096F8B0
:100C280000F0FEF900BF80BD80B500AF024800F0BB
:100C380041FE00BF80BD00BF7C0E002080B400AF25
:100C4800164A164BD3F8883043F47003C2F888303C
:100C5800134A134B1B6843F001031360104B002227
:100C68009A600F4A0E4B1B6823F0847323F4803379
:100C780013600B4B0B4A5A60094A094B1B6823F453
:100C880080231360064B0022DA60044B4FF00062A9
:100C98009A6000BFBD465DF8047B704700ED00E038
:100CA800003802401030002480B500AF0E4A0E4BC9
:100CB8001B6843F4007313600B4A0B4B1B6843F427
:100CC80080631360084A084B1B6843F48073136001
:100CD800032000F047F9002000F008F8FFF74AFF6A
:100CE8000023184680BD00BF003C024080B582B09A
:100CF80000AF7860124B1A68124B1B7819464FF4F4
:100D08007A73B3FBF1F3B2FBF3F3184600F05FF923
:100D18000346002B01D001230EE07B680F2B0AD875
:100D2800002279684FF0FF3000F027F9064A7B6807
:100D38001360002300E0012318460837BD4680BD34
:100D480000000020080000200400002080B400AF4C
:100D5800064B1B781A46064B1B681344044A13605B
:100D680000BFBD465DF8047B704700BF0800002047
:100D78004806002080B400AF034B1B681846BD46E8
:100D88005DF8047B704700BF4806002080B584B03A
:100D980000AF7860FFF7EEFFB8607B68FB60FB6828
:100DA800B3F1FF3F05D0094B1B781A46FB68134483
:100DB800FB6000BFFFF7DEFF0246BB68D21AFB6884
:100DC8009A42F7D300BF1037BD4680BD0800002007
:100DD80080B485B000AF78607B6803F00703FB60E0
:100DE8000C4BDB68BB60BA684FF6FF031340BB606F
:100DF800FB681A02BB68134343F0BF6343F4003334
:100E0800BB60044ABB68D36000BF1437BD465DF8B9
:100E1800047B704700ED00E080B400AF044BDB6852
:100E28001B0A03F007031846BD465DF8047B7047AC
:100E380000ED00E080B483B000AF0346FB710949C0
:100E480097F907305B09FA7902F01F02012000FACE
:100E580002F241F8232000BF0C37BD465DF8047B41
:100E6800704700BF00E100E080B483B000AF0346E4
:100E78003960FB7197F90730002B0BDA0D49FB79C4
:100E880003F00F03043B3A68D2B21201D2B20B440A
:100E98001A7609E0084997F907303A68D2B2120180
:100EA800D2B20B4483F8002300BF0C37BD465DF86F
:100EB800047B704700ED00E000E100E080B489B0F9
:100EC80000AFF860B9607A60FB6803F00703FB6164
:100ED800FB69C3F10703042B28BF0423BB61FB692B
:100EE8000433062B02D9FB69033B00E000237B6136
:100EF8000122BB6902FA03F35A1EBB681A407B69D8
:100F08009A4001217B6901FA03F3591E7B680B4063
:100F1800134318462437BD465DF8047B704700002C
:100F280080B582B000AF78607B68013BB3F1807F09
:100F380001D301230FE00A4A7B68013B53600F216C
:100F48004FF0FF30FFF790FF054B00229A60044BEB
:100F580007221A60002318460837BD4680BD00BF27
:100F680010E000E080B582B000AF78607868FFF7E5
:100F78002FFF00BF0837BD4680BD80B586B000AFE3
:100F88000346B9607A60FB7300237B61FFF744FF77
:100F980078617A68B9687869FFF790FF024697F92F
:100FA8000F3011461846FFF75FFF00BF1837BD46E0
:100FB80080BD80B582B000AF0346FB7197F907305A
:100FC8001846FFF737FF00BF0837BD4680BD80B51C
:100FD80082B000AF78607868FFF7A2FF0346184632
:100FE8000837BD4680BD000080B483B000AF78608C
:100FF8007B68042B06D1094A084B1B6843F004039D
:10100800136005E0054A054B1B6823F004031360D1
:1010180000BF0C37BD465DF8047B704710E000E068
:1010280080B500AF00F002F800BF80BD80B400AF0B
:1010380000BFBD465DF8047B7047000080B489B0EE
:1010480000AF7860396000237B6100233B61002397
:10105800BB610023FB616BE10122FB6902FA03F328
:101068007B613B681A687B6913403B613A697B691D
:101078009A4240F05A813B685B68022B03D03B6878
:101088005B68122B23D1FB69DA087B68083253F8B6
:101098002230BB61FB6903F007039B000F2202FAB1
:1010A80003F3DB43BA691340BB613B681A69FB6908
:1010B80003F007039B0002FA03F3BA691343BB6109
:1010C800FB69DA087B680832B96943F822107B6843
:1010D8001B68BB61FB695B00032202FA03F3DB4375
:1010E800BA691340BB613B685B6803F00302FB69A4
:1010F8005B0002FA03F3BA691343BB617B68BA6900
:101108001A603B685B68012B0BD03B685B68022B5D
:1011180007D03B685B68112B03D03B685B68122BD8
:1011280030D17B689B68BB61FB695B00032202FAD4
:1011380003F3DB43BA691340BB613B68DA68FB69B8
:101148005B0002FA03F3BA691343BB617B68BA69AF
:101158009A607B685B68BB610122FB6902FA03F352
:10116800DB43BA691340BB613B685B681B0903F04A
:101178000102FB6902FA03F3BA691343BB617B6896
:10118800BA695A607B68DB68BB61FB695B00032254
:1011980002FA03F3DB43BA691340BB613B689A6800
:1011A800FB695B0002FA03F3BA691343BB617B680E
:1011B800BA69DA603B685B6803F08053002B00F083
:1011C800B4800023FB605F4A5E4B5B6C43F4804352
:1011D80053645C4B5B6C03F48043FB60FB685A4AC6
:1011E800FB699B08023352F82330BB61FB6903F0AB
:1011F80003039B000F2202FA03F3DB43BA6913408F
:10120800BB617B68514A93422BD07B68504A93421A
:1012180025D07B684F4A93421FD07B684E4A934241
:1012280019D07B684D4A934213D07B684C4A93424D
:101238000DD07B684B4A934207D07B684A4A934259
:1012480001D107230EE008230CE006230AE005235A
:1012580008E0042306E0032304E0022302E001235C
:1012680000E00023FA6902F0030292009340BA6991
:101278001343BB613449FB699B080233BA6941F8DF
:1012880023203A4B1B68BB613B69DB43BA691340B7
:10129800BB613B685B6803F48033002B03D0BA69F9
:1012A8003B691343BB61314ABB6913602F4B5B68D1
:1012B800BB613B69DB43BA691340BB613B685B6850
:1012C80003F40033002B03D0BA693B691343BB61B5
:1012D800264ABB695360254B9B68BB613B69DB436E
:1012E800BA691340BB613B685B6803F48013002B49
:1012F80003D0BA693B691343BB611C4ABB6993605D
:101308001A4BDB68BB613B69DB43BA691340BB61BD
:101318003B685B6803F40013002B03D0BA693B6990
:101328001343BB61114ABB69D360FB690133FB619D
:10133800FB690F2B7FF690AE00BF2437BD465DF8E2
:10134800047B70470038024000380140000002402A
:101358000004024000080240000C02400010024055
:101368000014024000180240001C0240003C0140EA
:1013780080B483B000AF78600B467B8013467B70E7
:101388007B78002B03D07A887B689A6103E07B889E
:101398001A047B689A6100BF0C37BD465DF8047B70
:1013A8007047F0B58DB00AAF78607B68002B01D12B
:1013B80001233EE07B68032283F89122786808F0D5
:1013C800C3FF7B681B68184602F07FFF7B681B68B9
:1013D8003B607E686D4606F110040FCC0FC50FCC3C
:1013E8000FC594E8030085E80300331D0ECB386869
:1013F80002F009FF7B681B680121184602F076FF9E
:101408007B681B683B607E686D4606F110040FCC54
:101418000FC50FCC0FC594E8030085E80300331D02
:101428000ECB386803F086F87B68012283F8912296
:10143800002318460C37BD46F0BD90B589B004AFFF
:101448007860084611461A460346FB700B46BB7087
:1014580013467B700023FB737B6893F89032012B53
:1014680001D102236CE07B68012283F89022FA788C
:10147800796813469B001344DB000B4438337A78B1
:101488001A70FA78796813469B001344DB000B4402
:1014980040333A8D1A80FA78796813469B001344D2
:1014A800DB000B443933FA781A70FA7879681346F6
:1014B8009B001344DB000B443F3397F824201A7039
:1014C800FA78BB7803F07F03D8B2796813469B009B
:1014D8001344DB000B443A3302461A70FA7897F942
:1014E8000230DBB2DB09DBB21846796813469B0091
:1014F8001344DB000B443B3302461A70FA787968D0
:1015080013469B001344DB000B443C3397F8202020
:101518001A707B6818687C78BA78F9783B8D0293E2
:1015280097F82430019397F820300093234603F06E
:1015380065F90346FB737B68002283F89022FB7BE6
:1015480018461437BD4690BD80B584B000AF7860AA
:101558000B46FB700023FB737B6893F89032012BDA
:1015680001D102230FE07B68012283F890227B6877
:101578001B68FA781146184603F089FB7B6800223D
:1015880083F89022FB7B18461037BD4680BD0000CB
:1015980080B582B000AF7860084611461A46034607
:1015A800FB700B46BB7013467B70FA78796813465C
:1015B8009B001344DB000B443B33BA781A70FA786B
:1015C800796813469B001344DB000B443F337A7859
:1015D8001A703B7C002B0AD1FA78796813469B0075
:1015E8001344DB000B44423303221A7009E0FA78F3
:1015F800796813469B001344DB000B4442330222F4
:101608001A707B78032B00F2048101A252F823F0B0
:1016180029160008FF170008C116000875170008EA
:101628003B7C012B40F0F280BB78002B40F0EE8031
:101638003B8B002B09D1FA78796813469B00134439
:10164800DB000B44513301221A70FA78796813468B
:101658009B001344DB000B4451331B78002B0AD149
:10166800FA78796813469B001344DB000B44423335
:1016780000221A7009E0FA78796813469B0013442F
:10168800DB000B44423302221A70FA787968134659
:101698009B001344DB000B445C331B78022B00F0E7
:1016A800B580FA78796813469B001344DB000B4435
:1016B8003D333A7F1A70A9E0BB78002B35D1FA7810
:1016C800796813469B001344DB000B4451331B78A5
:1016D800002B0AD1FA78796813469B001344DB0083
:1016E8000B44423300221A7009E0FA7879681346ED
:1016F8009B001344DB000B44423302221A70FA7831
:10170800796813469B001344DB000B445C331B7859
:10171800022B7DD0FA78796813469B001344DB00CE
:101728000B443D333A7F1A7072E0FA7879681346B1
:101738009B001344DB000B4450331B78002B0AD169
:10174800FA78796813469B001344DB000B44423354
:1017580000221A705CE0FA78796813469B001344FB
:10176800DB000B44423302221A7051E0BB78002B95
:1017780020D1FA78796813469B001344DB000B44A8
:1017880051331B78002B0AD1FA78796813469B00ED
:101798001344DB000B44423300221A7039E0FA7814
:1017A800796813469B001344DB000B444233022242
:1017B8001A702EE0FA78796813469B001344DB0010
:1017C8000B4450331B78002B0AD1FA7879681346FA
:1017D8009B001344DB000B44423300221A7018E0CC
:1017E800FA78796813469B001344DB000B444233B4
:1017F80002221A700DE0FA78796813469B001344A8
:10180800DB000B44423300221A7002E000BF00E004
:1018180000BFFA78796813469B001344DB000B4439
:1018280044337A691A60FA78398B786813469B00D2
:101838001344DB00034448331960FA787968134687
:101848009B001344DB000B445C3300221A70FA78C7
:10185800796813469B001344DB000B444C33002289
:101868001A60FA78796813469B001344DB000B442E
:101878003933FA781A70FA78796813469B0013445A
:10188800DB000B445D3300221A707B681868FA7815
:1018980013469B001344DB0038337A68D1187B6801
:1018A8001B69DBB21A4603F0A5F803461846083749
:1018B800BD4680BD80B586B000AF78607B681B6888
:1018C8003B6100237B610023FB607B681B68184633
:1018D80002F0EDFD0346012B40F0E9807B681B68B0
:1018E800184602F0CFFD0346002B00F0DF807B682E
:1018F8001B68184602F0C6FD034603F40013B3F54F
:10190800001F04D17B681B684FF400125A617B6882
:101918001B68184602F0B6FD034603F48013B3F5BE
:10192800801F04D17B681B684FF480125A617B6862
:101938001B68184602F0A6FD034603F08063B3F166
:10194800806F04D17B681B684FF080625A617B68A6
:101958001B68184602F096FD034603F00203022BAB
:1019680003D17B681B6802225A617B681B68184692
:1019780002F088FD034603F00053B3F1005F18D16D
:101988003B6903F588631A463B6903F588631B685E
:1019980023F02E031360786808F03EFD7B681B680F
:1019A8000121184602F072FE7B681B684FF0005256
:1019B8005A617B681B68184602F064FD034603F011
:1019C8008073B3F1807F02D1786801F01BF87B68DF
:1019D8001B68184602F056FD034603F00803082B5F
:1019E80006D1786808F0FCFC7B681B6808225A61FD
:1019F8007B681B68184602F045FD034603F0007338
:101A0800B3F1007F34D17B681B68184603F030F9C6
:101A1800F86000237B6121E001227B699A40FB6822
:101A28001340002B17D07B695A013B69134403F517
:101A3800A0631B6803F40043002B06D07B69DBB26C
:101A48001946786800F0CAF805E07B69DBB21946E8
:101A5800786800F003FC7B6901337B617B689A68D6
:101A68007B699A42D8D87B681B684FF000725A612C
:101A78007B681B68184602F005FD034603F0100357
:101A8800102B14D17B681B687A681268926922F05F
:101A980010029A61786800F003FF7B681B687A6817
:101AA8001268926942F010029A6100E000BF18378C
:101AB800BD4680BD80B582B000AF78607B6893F882
:101AC8009032012B01D1022313E07B68012283F8B5
:101AD80090227B681B68184602F0E6FB7B681B684F
:101AE8000121184602F031FE7B68002283F890221B
:101AF800002318460837BD4680BD80B582B000AFC8
:101B080078607B6893F89032012B01D102230DE0B5
:101B18007B68012283F890227B681B68184603F0D3
:101B2800DBF97B68002283F89022002318460837E7
:101B3800BD4680BD80B582B000AF78607B681B6809
:101B4800184602F0DDFD034618460837BD4680BD3D
:101B580080B483B000AF78600B46FB70FA78796880
:101B680013469B001344DB000B445C331B78184678
:101B78000C37BD465DF8047B704780B483B000AF76
:101B880078600B46FB70FA78796813469B0013441B
:101B9800DB000B444C331B6818460C37BD465DF818
:101BA800047B704780B582B000AF78607B681B68A3
:101BB800184602F014FE034618460837BD4680BD95
:101BC80080B582B000AF78607B681B68184602F069
:101BD800F3FD034618460837BD4680BD90B585B06D
:101BE80000AF78600B46FB707B681B68FB600023C6
:101BF800BB60FB785A01FB68134403F5A0639B683C
:101C080003F00403002B1AD0FB785A01FB68134435
:101C180003F5A0631A4604239360FB785A01FB6816
:101C2800134403F5A0631946FB785A01FB68134473
:101C380003F5A063DB6843F00203CB6094E0FB7814
:101C48005A01FB68134403F5A0639B6803F0200363
:101C5800002B09D0FB785A01FB68134403F5A063F5
:101C68001A46202393607FE0FB785A01FB681344EF
:101C780003F5A0639B6803F00803002B34D0FB78BE
:101C88005A01FB68134403F5A0631946FB785A010F
:101C9800FB68134403F5A063DB6843F00203CB60E1
:101CA800FA78796813469B001344DB000B445D33D4
:101CB80005221A70FB785A01FB68134403F5A063E8
:101CC8001A4610239360FB785A01FB68134403F506
:101CD800A0631A46082393607B681B68FA7811464C
:101CE800184602F0D4FF3FE0FB785A01FB68134422
:101CF80003F5A0639B6803F48063002B34D0FB7862
:101D08005A01FB68134403F5A0631946FB785A018E
:101D1800FB68134403F5A063DB6843F00203CB6060
:101D28007B681B68FA781146184602F0B0FFFB780A
:101D38005A01FB68134403F5A0631A461023936005
:101D4800FA78796813469B001344DB000B445D3333
:101D580008221A70FB785A01FB68134403F5A06344
:101D68001A464FF480639360FB785A01FB6813446A
:101D780003F5A0639B6803F40073002B22D0FB7863
:101D88005A01FB68134403F5A0631946FB785A010E
:101D9800FB68134403F5A063DB6843F00203CB60E0
:101DA8007B681B68FA781146184602F070FFFB78CA
:101DB8005A01FB68134403F5A0631A464FF40073F5
:101DC800936047E2FB785A01FB68134403F5A0636C
:101DD8009B6803F00103002B00F0C0807B681B693F
:101DE800002B1BD0FA78F97878680B469B000B44D7
:101DF800DB00034448331968FB785801FB68034447
:101E080003F5A0631B69C3F31203C91A7868134664
:101E18009B001344DB0003444C331960FA7879685B
:101E280013469B001344DB000B445D3301221A70F8
:101E3800FA78796813469B001344DB000B44583347
:101E480000221A60FB785A01FB68134403F5A0636B
:101E58001A4601239360FA78796813469B00134465
:101E6800DB000B443F331B78002B0AD0FA787968E3
:101E780013469B001344DB000B443F331B78022BB3
:101E880021D1FB785A01FB68134403F5A063194676
:101E9800FB785A01FB68134403F5A063DB6843F041
:101EA8000203CB607B681B68FA781146184602F07B
:101EB800EEFEFB785A01FB68134403F5A0631A464B
:101EC8001023936033E0FA78796813469B00134433
:101ED800DB000B443F331B78032B28D1FB785A01D6
:101EE800FB68134403F5A0631946FB785A01FB68A5
:101EF800134403F5A0631B6843F000530B60FA78A2
:101F0800796813469B001344DB000B445C330122C1
:101F18001A70FA78796813469B001344DB000B4467
:101F28005C331A78FB781946786808F083FAFA78EF
:101F3800F97878680B469B000B44DB000344503368
:101F48001B7883F00103D8B2796813469B001344C9
:101F5800DB000B44503302461A707BE1FB785A01D0
:101F6800FB68134403F5A0639B6803F00203002B8E
:101F780000F0B780FB785A01FB68134403F5A063AF
:101F88001946FB785A01FB68134403F5A063DB6824
:101F980023F00203CB60FA78796813469B00134458
:101FA800DB000B445D331B78012B0AD1FA78796882
:101FB80013469B001344DB000B445C3301221A7068
:101FC80077E0FA78796813469B001344DB000B44EA
:101FD8005D331B78052B0AD1FA78796813469B0084
:101FE8001344DB000B445C3305221A7061E0FA7875
:101FF800796813469B001344DB000B445D331B7860
:10200800062B0AD0FA78796813469B001344DB0044
:102018000B445D331B78082B4BD1FA78796813464B
:102028009B001344DB000B4458331968481C7C6838
:1020380013469B001344DB002344583318600329DC
:1020480014D9FA78796813469B001344DB000B44D3
:10205800583300221A60FA78796813469B001344B3
:10206800DB000B445C3304221A7009E0FA787968C3
:1020780013469B001344DB000B445C3302221A70A6
:10208800FB785A01FB68134403F5A0631B68BB6027
:10209800BB6823F08043BB60BB6843F00043BB6070
:1020A800FB785A01FB68134403F5A0631A46BB6822
:1020B8001360FB785A01FB68134403F5A0631A46C2
:1020C80002239360FA78796813469B001344DB0077
:1020D8000B445C331A78FB781946786808F0AAF93B
:1020E800B8E0FB785A01FB68134403F5A0639B68CA
:1020F80003F08003002B3DD0FB785A01FB681344A2
:1021080003F5A0631946FB785A01FB68134403F5ED
:10211800A063DB6843F00203CB60FA787968134662
:102128009B001344DB000B4458331B68591C786828
:1021380013469B001344DB00034458331960FA78B4
:10214800796813469B001344DB000B445D33062279
:102158001A707B681B68FA781146184602F097FDDA
:10216800FB785A01FB68134403F5A0631A468023E1
:1021780093606FE0FB785A01FB68134403F5A06392
:102188009B6803F01003002B64D0FA787968134633
:102198009B001344DB000B443F331B78032B17D100
:1021A800FB785A01FB68134403F5A0631946FB78D2
:1021B8005A01FB68134403F5A063DB6843F002038C
:1021C800CB607B681B68FA781146184602F05FFD01
:1021D800FA78796813469B001344DB000B445D339F
:1021E80003221A70FB785A01FB68134403F5A063B5
:1021F8001A4610239360FA78796813469B001344B3
:10220800DB000B443F331B78002B0AD0FA7879683F
:1022180013469B001344DB000B443F331B78022B0F
:1022280018D1FB785A01FB68134403F5A0631B68B7
:10223800BB60BB6823F08043BB60BB6843F00043CE
:10224800BB60FB785A01FB68134403F5A0631A4688
:10225800BB68136000BF1437BD4690BD90B585B00C
:1022680000AF78600B46FB707B681B68FB60FB78EF
:102278005A01FB68134403F5A0639B6803F0040349
:10228800002B1AD0FB785A01FB68134403F5A063AE
:102298001A4604239360FB785A01FB68134403F53C
:1022A800A0631946FB785A01FB68134403F5A06341
:1022B800DB6843F00203CB60EDE2FB785A01FB6870
:1022C800134403F5A0639B6803F02003002B41D05F
:1022D800FB785A01FB68134403F5A0631A462023D0
:1022E8009360FA78796813469B001344DB000B442B
:1022F8003D331B78012B40F0CE82FA78796813467B
:102308009B001344DB000B445D3304221A70FB78F6
:102318005A01FB68134403F5A0631946FB785A0178
:10232800FB68134403F5A063DB6843F00203CB604A
:102338007B681B68FA781146184602F0A8FCFA7800
:10234800796813469B001344DB000B445C3302227C
:102358001A70A0E2FB785A01FB68134403F5A063E6
:102368009B6803F04003002B35D0FA787968134650
:102378009B001344DB000B445D3304221A70FA7887
:10238800796813469B001344DB000B445833002242
:102398001A60FB785A01FB68134403F5A0631946D9
:1023A800FB785A01FB68134403F5A063DB6843F02C
:1023B8000203CB607B681B68FA781146184602F066
:1023C80066FCFB785A01FB68134403F5A0631A46C0
:1023D800402393605FE2FB785A01FB68134403F5DE
:1023E800A0639B6803F40073002B22D0FB785A018A
:1023F800FB68134403F5A0631946FB785A01FB6890
:10240800134403F5A063DB6843F00203CB607B68E9
:102418001B68FA781146184602F039FCFB785A0115
:10242800FB68134403F5A0631A464FF400739360E6
:1024380031E2FB785A01FB68134403F5A0639B68FB
:1024480003F00103002B35D0FA78796813469B0016
:102458001344DB000B44583300221A60FB785A01FE
:10246800FB68134403F5A0631946FB785A01FB681F
:10247800134403F5A063DB6843F00203CB607B6879
:102488001B68FA781146184602F001FCFB785A01DD
:10249800FB68134403F5A0631A4601239360FA7896
:1024A800796813469B001344DB000B445D3301221B
:1024B8001A70F0E1FB785A01FB68134403F5A06336
:1024C8009B6803F00803002B2BD0FB785A01FB68AC
:1024D800134403F5A0631A4608239360FB785A0156
:1024E800FB68134403F5A0631946FB785A01FB689F
:1024F800134403F5A063DB6843F00203CB607B68F9
:102508001B68FA781146184602F0C1FBFA78796818
:1025180013469B001344DB000B445D3305221A70FD
:10252800B9E1FB785A01FB68134403F5A0639B6883
:1025380003F01003002B35D0FA78796813469B0016
:102548001344DB000B44583300221A60FB785A010D
:10255800FB68134403F5A0631946FB785A01FB682E
:10256800134403F5A063DB6843F00203CB607B6888
:102578001B68FA781146184602F089FBFA787968E0
:1025880013469B001344DB000B445D3303221A708F
:10259800FB785A01FB68134403F5A0631A4610231D
:1025A800936078E1FB785A01FB68134403F5A06354
:1025B8009B6803F08003002B2BD0FB785A01FB6843
:1025C800134403F5A0631946FB785A01FB681344CA
:1025D80003F5A063DB6843F00203CB607B681B68EC
:1025E800FA781146184602F052FBFA7879681346D1
:1025F8009B001344DB000B445D3306221A70FB7802
:102608005A01FB68134403F5A0631A4680239360BC
:1026180041E1FB785A01FB68134403F5A0639B680A
:1026280003F48063002B35D0FB785A01FB68134410
:1026380003F5A0631946FB785A01FB68134403F5B8
:10264800A063DB6843F00203CB607B681B68FA7801
:102658001146184602F01BFBFB785A01FB6813442D
:1026680003F5A0631A4610239360FB785A01FB68B0
:10267800134403F5A0631A464FF480639360FA7815
:10268800796813469B001344DB000B445D33082232
:102698001A7000E1FB785A01FB68134403F5A06344
:1026A8009B6803F00203002B00F0F580FB785A01C9
:1026B800FB68134403F5A0631946FB785A01FB68CD
:1026C800134403F5A063DB6823F00203CB60FA78B8
:1026D800796813469B001344DB000B445D331B7879
:1026E800012B2CD1FA78796813469B001344DB0040
:1026F8000B445C3301221A70FA78796813469B0000
:102708001344DB000B443F331B78022B40F0AC80B2
:10271800FA78F97878680B469B000B44DB00034491
:1027280051331B7883F00103D8B2796813469B00B4
:102738001344DB000B44513302461A7094E0FA78D4
:10274800796813469B001344DB000B445D331B7808
:10275800032B0AD1FA78796813469B001344DB00EF
:102768000B445C3302221A707EE0FA7879681346CB
:102778009B001344DB000B445D331B78042B14D1FE
:10278800FA78796813469B001344DB000B445C33EA
:1027980002221A70FA78796813469B001344DB000A
:1027A8000B443D3300221A705EE0FA7879681346CC
:1027B8009B001344DB000B445D331B78052B0AD1C7
:1027C800FA78796813469B001344DB000B445C33AA
:1027D80005221A7048E0FA78796813469B0013447A
:1027E800DB000B445D331B78062B0AD0FA78796836
:1027F80013469B001344DB000B445D331B78082B06
:1028080032D1FA78796813469B001344DB000B44F5
:1028180058331968481C7C6813469B001344DB0036
:10282800234458331860032914D9FA787968134671
:102838009B001344DB000B44583300221A60FA78DB
:10284800796813469B001344DB000B445C33042275
:102858001A7009E0FA78796813469B001344DB0084
:102868000B445C3302221A70FB785A01FB6813444C
:1028780003F5A0631A4602239360FA787968134631
:102888009B001344DB000B445C331A78FB78194631
:10289800786807F0CFFD00BF1437BD4690BD000033
:1028A80080B588B000AF78607B681B68FB61002347
:1028B800FB7600237B6100233B617B681B681B6AF6
:1028C8007B617B69DBB203F00F03FB767B695B0CF2
:1028D80003F00F03FB607B691B09C3F30A03BB60AA
:1028E800FB68022B03D0052B00F0828083E0BB68D5
:1028F800002B7FD0FA7E796813469B001344DB00D7
:102908000B4444331B68002B74D07B681868FA7E2C
:10291800796813469B001344DB000B4444331B685F
:10292800BA6892B2194601F086FDFA7EF97E786897
:102938000B469B000B44DB00034444331968BB6817
:102948001944786813469B001344DB00034444335E
:102958001960FA7EF97E78680B469B000B44DB0011
:1029680003444C331968BB681944786813469B00C4
:102978001344DB0003444C331960FB7E5A01FB69A6
:10298800134403F5A0631A691D4B1340002B31D083
:10299800FB7E5A01FB69134403F5A0631B683B6186
:1029A8003B6923F080433B613B6943F000433B6153
:1029B800FB7E5A01FB69134403F5A0631A463B6981
:1029C8001360FA7EF97E78680B469B000B44DB00A7
:1029D800034450331B7883F00103D8B27968134657
:1029E8009B001344DB000B44503302461A7001E08D
:1029F80000BF00E000BF00BF2037BD4680BD00BF5C
:102A08000000F81F80B586B000AF78607B681B684F
:102A18007B617B6903F588631B683B617B6903F510
:102A280088631B68FB60FB6823F02E03FB603B692F
:102A380003F00203022B13D13B6903F00103012BBE
:102A48000AD17B681B687A681268926922F0005282
:102A58009A61786807F0D2FCFB6843F00203FB60D8
:102A68003B6903F00803082B42D1FB6843F00803D5
:102A7800FB603B6903F00403042B26D17B689B6948
:102A8800022B13D13B6903F4C023B3F5802F06D181
:102A98007B681B680221184601F0F8FD11E07B688D
:102AA8001B680121184601F0F1FD0AE07B68DB682C
:102AB800032B06D17B6903F580631A464EF6602323
:102AC8005360786807F09AFC12E07B6903F5886325
:102AD8001A467B6903F588631B6823F02E0313608D
:102AE8007B681B687A681268926942F000529A61A2
:102AF8003B6903F02003202B03D1FB6843F020033C
:102B0800FB607B6903F588631A46FB68136000BFA6
:102B18001837BD4680BD000080B584B000AF78602E
:102B28000023FB600023BB607B68002B01D10123DD
:102B3800C8E07B6893F83D30DBB2002B06D17B6898
:102B4800002283F83C207868FDF7EAFD7B682422A0
:102B580083F83D207B681B687A681268126822F047
:102B680001021A6001F09AF9B860BB68574AA2FBE3
:102B780003239B0CFB607B681B68FA685A607B68C0
:102B88001A687B685B6852498B4202D8FB6801333C
:102B980009E0FB684FF4967101FB03F34D49A1FB73
:102BA80003139B09013313627B6819687B685B68B0
:102BB800474A934212D87B685B685B00BA68B2FBED
:102BC800F3F3C3F30B03032B06D97B685B685B0045
:102BD800BA68B2FBF3F345E0042343E07B689B68E3
:102BE800002B0FD17B685A6813465B001344BA6800
:102BF800B2FBF3F3C3F30B03002B0CBF0123002339
:102C0800DBB210E07B685A6813469B0013449A00B5
:102C18001344BA68B2FBF3F3C3F30B03002B0CBFE6
:102C280001230023DBB2002B01D001231AE07B68CB
:102C38009B68002B0AD17B685A6813465B001344D3
:102C4800BA68B2FBF3F343F400430BE07B685A68BD
:102C580013469B0013449A001344BA68B2FBF3F37B
:102C680043F44043CB617B681B687A68D1697A6812
:102C7800126A0A431A607B681B687A6811697A6865
:102C8800D2680A439A607B681B687A6851697A68D7
:102C980092690A43DA607B681B687A68126812686E
:102CA80042F001021A607B6800221A647B682022C5
:102CB80083F83D207B6800221A637B68002283F832
:102CC8003E20002318461037BD4680BD83DE1B43D7
:102CD800A0860100D34D621080B588B000AF78603F
:102CE8000023FB600223FB610023BB6110237B618F
:102CF80000233B610023BB607B68002B01D10123CB
:102D08002BE17B68022283F841207B68954A5A634D
:102D18007868FDF76BFD7B681A687B681B68DB6960
:102D280023F47B6323F00F03D3617B681B680222C3
:102D38001A627B681B68DB69FB607B685B69022B36
:102D480061D07B68DB68002B02D020237B6101E027
:102D580010237B617B689B68202B02D87B695B0012
:102D68007B61012001F090F9B8607B681B69B3F5BD
:102D7800007F25D17B68DB68002B10D07B699B0026
:102D8800BA68B2FBF3F213469B0013445B001A4681
:102D98007B685B69B2FBF3F305333B611FE07B693A
:102DA800DB00BA68B2FBF3F213469B0013445B00E6
:102DB8001A467B685B69B2FBF3F305333B610EE0AF
:102DC800BA687B69B2FBF3F213469B0013445B00BD
:102DD8001A467B685B69B2FBF3F305333B613B69D9
:102DE800614AA2FB0323DB083B613B699BB203F00A
:102DF8000103BB613A69BB69D31A5B089BB2FB61EB
:102E0800BB691B02BB61FB69012B02D9FB69FF2B64
:102E18000ED90223FB610023BB617B685B6C43F026
:102E280010027B685A64786800F0BAF8012394E0CD
:102E38007B681B687A681169BA691143FA690A43A1
:102E48001A627B685B689AB27B689B6899B27B68F8
:102E5800DB6898B27B689B699BB203439BB20B43C8
:102E68009BB213439BB243F400639BB21A46FB68C0
:102E78001343FB607B681B68FA68DA617B681B6A2E
:102E8800012B62D17B68394A5A637B681B68384AD0
:102E9800934201D1374A01E04FF040227B681B681A
:102EA80033498B4201D1334B01E04FF04023DB69BA
:102EB80023F47B6323F00F03D3617B681B682C4AE0
:102EC800934201D12B4B01E04FF0402302221A62BA
:102ED8007B681B68264A934201D1264B01E04FF0DC
:102EE8004023DB69FB607B685B68B3F5007F03D038
:102EF8007B685B68002B03D14FF480733B6101E072
:102F080000233B613B699AB27B689B6899B27B68F6
:102F1800DB6898B27B689B699BB203439BB20B4307
:102F28009BB213439BB243F400639BB21A46FB68FF
:102F38001343FB607B681B680D4A934201D10D4B1C
:102F480001E04FF04023FA68DA617B6800225A6496
:102F58007B68012283F84120002318462037BD46AC
:102F680080BD00BF73300008CDCCCCCC8D310008BB
:102F7800003800400034004080B483B000AF78606F
:102F880000BF0C37BD465DF8047B704780B483B042
:102F980000AF786000BF0C37BD465DF8047B704712
:102FA80080B483B000AF786000BF0C37BD465DF8D1
:102FB800047B704780B582B000AF78607B681A6880
:102FC8007B685B6A981C796848621B88D3607B6859
:102FD8005B8D9BB2013B9AB27B685A857B685B8D9F
:102FE8009BB2002B0FD17B681A687B681B685968F5
:102FF8004FF65F730B4053607B68012283F84120D2
:103008007868FFF7B9FF00BF0837BD4680BD80B5B7
:1030180082B000AF78607B68DB6A991C7A68D162FD
:103028007A681268D26892B21A807B685B8E9BB20B
:10303800013B9AB27B685A867B685B8E9BB2002BF9
:103048000FD17B681A687B681B6859684FF69F73B5
:103058000B4053607B68012283F841207868FFF7B2
:1030680095FF00BF0837BD4680BD80B586B000AF6C
:1030780078607B681B689B687B617B6893F841304C
:10308800DBB2042B3BD17B6903F00103012B09D18F
:103098007B681B685B6803F04003402B02D17868AB
:1030A800FFF7B5FF7B6903F04003402B27D17B680E
:1030B8001B685B6803F02003202B20D17B681A680B
:1030C8007B681B6859684FF69F730B405360002359
:1030D8003B617B681B68DB683B617B681B689B689E
:1030E8003B613B697B68012283F841207B685B6C0C
:1030F80043F002027B685A647868FFF751FF7B68E7
:1031080093F84130DBB2032B37D17B6903F002031C
:10311800022B09D17B681B685B6803F08003802B56
:1031280002D17868FFF746FF7B6903F00803082B94
:1031380023D17B681B685B6803F02003202B1CD11C
:103148007B681A687B681B6859684FF65F730B4089
:1031580053600023FB607B681B689B68FB60FB680F
:103168007B68012283F841207B685B6C43F0040292
:103178007B685A647868FFF713FF00BF1837BD46AD
:1031880080BD000080B586B000AF78607B681B68A2
:103198009B687B617B681B68A24A934201D1A24B62
:1031A80001E04FF040239B683B617B681B68DB694B
:1031B80003F44073B3F5007F07D07B681B68DB69B5
:1031C80003F44073002B40F0B3807B6903F00203E3
:1031D800022B0AD17B681B685B6803F08003802B95
:1031E80003D10021786800F05BF93B6903F0010323
:1031F800012B11D17B681B688A4A934201D18A4B03
:1032080001E04FF040235B6803F04003402B03D1FB
:103218000121786800F0BEF93B6903F04003402BB8
:1032280044D17B681B687F4A934201D17E4B01E001
:103238004FF040235B6803F02003202B36D17B68D6
:103248001B68784A934201D1774B01E04FF0402345
:103258007A68126873498A4201D1734A01E04FF0D3
:103268004022526822F060025A607B681A687B68C4
:103278001B6859684FF65F730B4053600023FB606F
:103288007B681B68DB68FB607B681B689B68FB606E
:10329800FB687B68012283F841207B685B6C43F004
:1032A80002027B685A647868FFF77AFE7B6903F04C
:1032B8000803082B40F0E0807B681B685B6803F01C
:1032C8002003202B40F0D8807B681A687B681B6835
:1032D80059684FF65F730B4053607B681B68514A0F
:1032E800934201D1504B01E04FF040237A681268B5
:1032F8004C498A4201D14C4A01E04FF040225268C1
:1033080022F060025A600023BB607B681B689B68E0
:10331800BB60BB687B68012283F841207B685B6CDB
:1033280043F004027B685A647868FFF739FEA3E02B
:103338003B6903F00203022B11D17B681B68394AF1
:10334800934201D1384B01E04FF040235B6803F012
:103358008003802B03D10121786800F0A1F87B69F4
:1033680003F00103012B0AD17B681B685B6803F03B
:103378004003402B03D10021786800F00BF97B69EA
:1033880003F04003402B32D17B681B685B6803F075
:103398002003202B2BD17B681A687B681B6859682F
:1033A8004FF69F730B4053607B681B681D4A93421E
:1033B80001D11D4B01E04FF040237A68126819498A
:1033C8008A4201D1184A01E04FF04022526822F0A7
:1033D800A0025A607B68012283F841207B685B6CFD
:1033E80043F002027B685A647868FFF7D9FD3B69AD
:1033F80003F00803082B40D17B681B68094A9342F5
:1034080001D1094B01E04FF040235B6803F0200332
:10341800202B32D17B681B68024A934206D1024BAB
:1034280006E000BF00380040003400404FF0402361
:103438007A68126813498A4201D1134A01E04FF0B1
:103448004022526822F0A0025A607B681A687B68A2
:103458001B6859684FF69F730B4053607B680122C5
:1034680083F841207B685B6C43F004027B685A64F4
:103478007868FFF795FD00E000BF00BF1837BD462C
:1034880080BD00BF003800400034004080B483B0E5
:1034980000AF786000BF0C37BD465DF8047B70470D
:1034A80080B582B000AF78600B46FB70FB78002BCC
:1034B8002AD17B681A687B685B6A981C79684862BD
:1034C8001B88D3607B685B8D9BB2013B9AB27B689B
:1034D8005A857B685B8D9BB2002B53D17B681A6839
:1034E8007B681B6859684FF65F730B4053607B68B5
:1034F8005B8E9BB2002B45D17B68012283F841206B
:103508007868FFF7C3FF3DE07B681B681F4A93425A
:1035180001D11F4A01E04FF040227B685B6A981C8A
:10352800796848621B88D3607B685B8D9BB2013BDE
:103538009AB27B685A857B685B8D9BB2002B21D140
:103548007B681B68114A934201D1114B01E04FF08F
:1035580040237A6812680D498A4201D10C4A01E079
:103568004FF04022526822F0A0025A607B685B8EBE
:103578009BB2002B06D17B68012283F84120786832
:10358800FFF784FF00BF0837BD4680BD0038004004
:103598000034004080B582B000AF78600B46FB7005
:1035A800FB78002B2BD17B68DB6A991C7A68D16287
:1035B8007A681268D26892B21A807B685B8E9BB276
:1035C800013B9AB27B685A867B685B8E9BB2002B64
:1035D80054D17B681A687B681B6859684FF69F73DB
:1035E8000B4053607B685B8D9BB2002B46D17B6898
:1035F800012283F841207868FFF748FF3EE07B68A6
:10360800DB6A991C7A68D1627A6812681D498A4215
:1036180001D11D4A01E04FF04022D26892B21A80CF
:103628007B685B8E9BB2013B9AB27B685A867B684B
:103638005B8E9BB2002B21D17B681B68114A934299
:1036480001D1114B01E04FF040237A6812680D490F
:103658008A4201D10C4A01E04FF04022526822F020
:1036680060025A607B685B8D9BB2002B06D17B6839
:10367800012283F841207868FFF708FF00BF083768
:10368800BD4680BD003800400034004080B586B09B
:1036980000AF78607B68002B01D101232DE27B68A5
:1036A8001B6803F00103002B75D0A34B9B6803F044
:1036B8000C03042B0CD0A04B9B6803F00C03082BC5
:1036C80012D19D4B5B6803F48003B3F5800F0BD1D7
:1036D800994B1B6803F40033002B5BD07B685B6855
:1036E800002B57D1012308E27B685B68B3F5803F64
:1036F80006D1914A904B1B6843F4803313601DE058
:103708007B685B68B3F5A02F0CD18B4A8A4B1B688A
:1037180043F480231360884A874B1B6843F4803343
:1037280013600BE0844A844B1B6823F480331360D6
:10373800814A814B1B6823F4802313607B685B6894
:10374800002B13D0FDF716FB386108E0FDF712FBDC
:1037580002463B69D31A642B01D90323CDE1764B8A
:103768001B6803F40033002BF0D014E0FDF702FBD4
:10377800386108E0FDF7FEFA02463B69D31A642B6C
:1037880001D90323B9E16C4B1B6803F40033002B08
:10379800F0D100E000BF7B681B6803F00203002B38
:1037A80063D0654B9B6803F00C03002B0BD0624B76
:1037B8009B6803F00C03082B1CD15F4B5B6803F478
:1037C8008003002B16D15C4B1B6803F00203002B0F
:1037D80005D07B68DB68012B01D001238DE15649B8
:1037E800554B1B6823F0F8027B681B69DB00134309
:1037F8000B603AE07B68DB68002B20D04F4B01223E
:103808001A60FDF7B7FA386108E0FDF7B3FA024627
:103818003B69D31A022B01D903236EE1464B1B687F
:1038280003F00203002BF0D04349434B1B6823F0FD
:10383800F8027B681B69DB0013430B6015E03F4B04
:1038480000221A60FDF796FA386108E0FDF792FA4F
:1038580002463B69D31A022B01D903234DE1364BAB
:103868001B6803F00203002BF0D17B681B6803F090
:103878000803002B30D07B685B69002B16D0304BD7
:1038880001221A60FDF776FA386108E0FDF772FA4E
:1038980002463B69D31A022B01D903232DE1264B9B
:1038A8005B6F03F00203002BF0D015E0244B0022DD
:1038B8001A60FDF75FFA386108E0FDF75BFA024627
:1038C8003B69D31A022B01D9032316E11A4B5B6F0C
:1038D80003F00203002BF0D17B681B6803F004039C
:1038E800002B00F0A0800023FB75134B1B6C03F02A
:1038F8008053002B0FD10023FB600F4A0E4B1B6C2B
:1039080043F0805313640C4B1B6C03F08053FB6033
:10391800FB680123FB750B4B1B6803F48073002BBA
:1039280021D1084A074B1B6843F480731360FDF7E5
:1039380021FA386111E000BF003802400000474218
:10394800800E474200700040FDF714FA02463B69BA
:10395800D31A022B01D90323CFE06A4B1B6803F467
:103968008073002BF0D07B689B68012B06D1664AD8
:10397800654B1B6F43F0010313671CE07B689B6872
:10398800052B0CD1604A604B1B6F43F0040313678F
:103998005D4A5D4B1B6F43F0010313670BE05A4A06
:1039A800594B1B6F23F001031367574A564B1B6F84
:1039B80023F0040313677B689B68002B15D0FDF781
:1039C800D9F938610AE0FDF7D5F902463B69D31AFF
:1039D80041F28832934201D903238EE04A4B1B6F90
:1039E80003F00203002BEED014E0FDF7C3F93861B1
:1039F8000AE0FDF7BFF902463B69D31A41F2883263
:103A0800934201D9032378E03F4B1B6F03F0020375
:103A1800002BEED1FB7D012B05D13B4A3A4B1B6CA9
:103A280023F0805313647B689B69002B64D0364B6A
:103A38009B6803F00C03082B5CD07B689B69022B06
:103A480041D1324B00221A60FDF794F9386108E041
:103A5800FDF790F902463B69D31A022B01D90323DB
:103A68004BE0294B1B6803F00073002BF0D126496B
:103A78007B68DA697B681B6A1A437B685B6A9B010F
:103A88001A437B689B6A5B08013B1B041A437B68EB
:103A9800DB6A1B0613434B601C4B01221A60FDF7BF
:103AA80069F9386108E0FDF765F902463B69D31A00
:103AB800022B01D9032320E0134B1B6803F000738A
:103AC800002BF0D018E0114B00221A60FDF752F9D4
:103AD800386108E0FDF74EF902463B69D31A022B1C
:103AE80001D9032309E0084B1B6803F00073002B7E
:103AF800F0D101E0012300E0002318461837BD4645
:103B080080BD00BF0070004000380240600047429E
:103B180080B584B000AF786039607B68002B01D134
:103B28000123CAE0674B1B6803F00F023B689A4207
:103B38000CD2644B3A68D2B21A70624B1B6803F01D
:103B48000F023B689A4201D00123B6E07B681B68EC
:103B580003F00203002B20D07B681B6803F00403EA
:103B6800002B05D0584A584B9B6843F4E0539360A8
:103B78007B681B6803F00803002B05D0524A524BA0
:103B88009B6843F4604393604F494F4B9B6823F015
:103B9800F0027B689B6813438B607B681B6803F0AB
:103BA8000103002B44D07B685B68012B07D1464B8F
:103BB8001B6803F40033002B19D101237DE07B68D7
:103BC8005B68022B03D07B685B68032B07D13E4BF5
:103BD8001B6803F00073002B09D101236DE03A4BF9
:103BE8001B6803F00203002B01D1012365E036496D
:103BF800354B9B6823F003027B685B6813438B603B
:103C0800FDF7B8F8F8600AE0FDF7B4F80246FB687B
:103C1800D31A41F28832934201D903234DE02A4B4B
:103C28009B6803F00C027B685B689B009A42EBD1AF
:103C3800244B1B6803F00F023B689A420CD9214BB6
:103C48003A68D2B21A701F4B1B6803F00F023B6828
:103C58009A4201D0012330E07B681B6803F004031B
:103C6800002B08D01849184B9B6823F4E0527B6856
:103C7800DB6813438B607B681B6803F00803002B29
:103C880009D01149104B9B6823F460427B681B697B
:103C9800DB0013438B6000F01DF801460A4B9B685C
:103CA8001B0903F00F03094AD35C21FA03F3084AFE
:103CB80013600020FDF71AF8002318461037BD4698
:103CC80080BD00BF003C024000380240B4AC000890
:103CD800000000202DE9F04F8FB000AF0023FB62F9
:103CE80000237B630023BB6200233B63624B9B681A
:103CF80003F00C03042B07D0082B08D0002B40F04E
:103D0800B2805E4B3B63B1E05D4B3B63AEE05A4B28
:103D18005B6803F03F03FB62574B5B6803F4800367
:103D2800002B4ED0544B5B689B094FF0000440F2C7
:103D3800FF114FF0000201EA030102EA04020B46F8
:103D4800144660017862786A40EAD36078625B0161
:103D58003B62D7E908345B1A64EB02044FEA841922
:103D680049EA93694FEA8318B8EB030869EB040939
:103D78004FEAC903FB61FB6943EA5873FB614FEAE9
:103D8800C803BB61D7E9068918EB010849EB0209AA
:103D98004FEA49237B617B6943EAD8537B614FEA49
:103DA80048233B61D7E9048940464946FB6A4FF0FE
:103DB80000041A462346FCF703FA03460C467B63C5
:103DC80043E02D4B5B689B094FF0000440F2FF1164
:103DD8004FF0000201EA030102EA04020B4614460E
:103DE8006001F860F86840EAD360F8605B01BB6086
:103DF800D7E902345B1A64EB0204A60146EA93662B
:103E08009D01ED1A66EB0406F3007B607B6843EACC
:103E180055737B60EB003B6097E860006D1846EBDC
:103E280002064FEA862B4BEA955B4FEA852A5546F0
:103E38005E4628463146FB6A4FF000041A46234680
:103E4800FCF7BEF903460C467B630B4B5B681B0C07
:103E580003F0030301335B00BB627A6BBB6AB2FBFE
:103E6800F3F33B6302E0054B3B6300BF3B6B184633
:103E78003C37BD46BDE8F08F003802400024F4000E
:103E880000127A0080B400AF034B1B681846BD4689
:103E98005DF8047B704700BF0000002080B500AFCC
:103EA800FFF7F0FF0146054B9B689B0A03F00703E9
:103EB800034AD35C21FA03F3184680BD0038024058
:103EC800C4AC000880B586B000AF786000237B6181
:103ED80000233B617B681B6803F00103002B05D1BD
:103EE8007B681B6803F00403002B35D0624B00226B
:103EF8001A60FCF73FFF786108E0FCF73BFF0246D9
:103F08007B69D31A022B01D90323B0E05B4B1B68F2
:103F180003F00063002BF0D158497B685B689A0175
:103F28007B689B681B071343C1F88430524B0122FE
:103F38001A60FCF71FFF786108E0FCF71BFF0246D8
:103F48007B69D31A022B01D9032390E04B4B1B68E2
:103F580003F00063002BF0D07B681B6803F00203BA
:103F6800002B00F083800023FB60444A434B1B6C0A
:103F780043F080531364414B1B6C03F08053FB6088
:103F8800FB683F4A3E4B1B6843F480731360FCF7A1
:103F9800F1FE786108E0FCF7EDFE02467B69D31A72
:103FA800022B01D9032362E0354B1B6803F48073AD
:103FB800002BF0D0314B1B6F03F440733B613B691E
:103FC800002B2FD07B68DB6803F440723B699A4270
:103FD80028D02A4B1B6F23F440733B61294B0122E5
:103FE8001A60284B00221A60244A3B691367234B46
:103FF8001B6F03F00103002B14D0FCF7BBFE7861A4
:104008000AE0FCF7B7FE02467B69D31A41F2883210
:10401800934201D903232AE0184B1B6F03F00203D4
:10402800002BEED07B68DB6803F44073B3F5407F68
:104038000DD11249114B9B6823F4F8127B68DB6899
:1040480023F0704323F4407313438B6005E00B4A5D
:104058000A4B9B6823F4F81393600849074B1A6FBF
:104068007B68DB68C3F30B0313430B670023184615
:104078001837BD4680BD00BF68004742003802407F
:1040880000700040400E474280B487B000AF7860AF
:1040980000237B6100233B610023FB600023BB609E
:1040A8007B68012B3DD1224B9B6803F40003FB6026
:1040B800FB68002B04D0012B2FD11E4B7B612FE016
:1040C8001B4B5B6803F48003B3F5800F08D1184BD2
:1040D8005B6803F03F03184AB2FBF3F33B6107E068
:1040E800134B5B6803F03F03144AB2FBF3F33B61E5
:1040F8000F4BD3F884309B09C3F308033A6902FBDA
:1041080003F3BB600A4BD3F884301B0F03F007039B
:10411800BA68B2FBF3F37B6102E000237B6100BF66
:1041280000BF7B6918461C37BD465DF8047B7047A5
:10413800003802400080BB0000127A000024F4001E
:1041480080B582B000AF78607B68002B01D1012375
:1041580055E07B6800229A627B6893F85130DBB2A5
:10416800002B06D17B68002283F850207868FCF782
:10417800CFFC7B68022283F851207B681B687A6831
:104188001268126822F040021A607B681B687A681D
:1041980051687A68926811437A68D26811437A68DC
:1041A800126911437A68526911437A68926902F474
:1041B800007211437A68D26911437A68126A11430E
:1041C8007A68926A0A431A607B681B687A689269FF
:1041D800120C02F004017A68526A0A435A607B683A
:1041E8001B687A681268D26922F40062DA617B6817
:1041F80000225A657B68012283F851200023184663
:104208000837BD4680BD84B080B582B000AF786005
:1042180007F1140080E80E00BB6A012B20D17B68EF
:104228009B6B23F480327B689A637B68DB6823F49A
:10423800840323F040037A68D3607B68DB6823F447
:1042480040127B68DA607B6C012B05D17B68DB68E8
:1042580043F480127B68DA60786800F037F90CE084
:104268007B68DB6843F040027B68DA60786800F0BE
:104278002DF97B684FF480329A633B6A012B0BD18E
:104288007B689B6843F006027B689A607B689B6842
:1042980043F020027B689A60002318460837BD4621
:1042A800BDE8804004B0704780B483B000AF786048
:1042B8007B689B6843F001027B689A60002318467C
:1042C8000C37BD465DF8047B704780B483B000AFFF
:1042D80078607B689B6823F001027B689A60002302
:1042E80018460C37BD465DF8047B704780B582B030
:1042F80000AF78600B46FB707B68DB6823F0C04238
:104308007B68DA60FB78012B06D17B68DB6843F0B9
:1043180000527B68DA6008E0FB78002B05D17B68E7
:10432800DB6843F080427B68DA603220FCF72EFDC0
:10433800002318460837BD4680BD000080B485B00C
:1043480000AF786039600023FB603B689B0143F055
:1043580020027B681A61FB680133FB60FB68094A2D
:10436800934201D9032306E07B681B6903F020030D
:10437800202BF0D0002318461437BD465DF8047B87
:10438800704700BF400D030080B485B000AF78606F
:104398000023FB607B6810221A61FB680133FB6015
:1043A800FB68094A934201D9032306E07B681B692D
:1043B80003F01003102BF0D0002318461437BD4625
:1043C8005DF8047B704700BF400D030080B487B0E0
:1043D80000AFF860B96011461A460B46FB711346E8
:1043E800BB8000233B6100237B6197F82030002BC2
:1043F8001AD1BB8803339B083B6100237B610FE024
:10440800FB791A03FB68134403F580531A46BB680B
:104418001B6813607B6901337B61BB680433BB6035
:104428007A693B699A42EBD3002318461C37BD468C
:104438005DF8047B704780B487B000AFF860B9605E
:104448001346FB8000237B61FB8803339B083B6199
:1044580000237B610BE0FB6803F580531A68BB6897
:104468001A607B6901337B61BB680433BB607A697E
:104478003B699A42EFD3BB6818461C37BD465DF8C6
:10448800047B704780B485B000AF78600023FB6080
:104498007B685B69FB607B689B69FA681340FB601B
:1044A800FB6818461437BD465DF8047B704780B436
:1044B80083B000AF78607B685B6903F0010318463E
:1044C8000C37BD465DF8047B7047000080B485B0AA
:1044D80000AF78600023FB60FB680133FB60FB687A
:1044E800134A934201D903231BE07B681B69002B05
:1044F800F2DA0023FB607B681B6943F001027B68EA
:104508001A61FB680133FB60FB68094A934201D9D1
:10451800032306E07B681B6903F00103012BF0D03D
:10452800002318461437BD465DF8047B704700BF6A
:10453800400D030084B080B584B000AF786007F107
:104548001C0080E80E007B6803F560631A460023B0
:1045580013607B689B6B23F480227B689A637B687B
:104568009B6B23F400227B689A637B689B6B43F404
:1045780000127B689A637B6A032B0FD17B68B3F1C7
:10458800A04F0BD07B6803F580631A467B6803F560
:1045980080631B6843F0040313600AE07B6803F53B
:1045A80080631A467B6803F580631B6823F0040365
:1045B800136010217868FFF7C1FE7868FFF7E4FE02
:1045C8000023FB6015E0FB685A017B68134403F580
:1045D800A0631A464FF0FF339360FB685A017B686B
:1045E800134403F5A0631A460023D360FB68013324
:1045F800FB603A6AFB689A42E5D80121786800F0C6
:10460800A4F8C820FCF7C2FB7B6800229A617B688B
:104618004FF0FF325A617B68B3F1A04F0AD17B6833
:1046280080225A627B68144A9A627B68134AC3F8EC
:1046380000210AE07B684FF400725A627B68104AD6
:104648009A627B680F4AC3F80021BB6A002B05D128
:104658007B689B6943F010027B689A617B689A6962
:10466800094B13437A689361002318461037BD46F7
:10467800BDE8804004B0704780006000E000400062
:10468800000200010003E000080020A380B483B00A
:1046980000AF78600B46FB707B6803F580631A46B1
:1046A8007B6803F580631B6823F0030313607B6852
:1046B80003F5806319467B6803F580631A68FB7805
:1046C80003F0030313430B60FB78012B07D17B68CE
:1046D80003F580631A464BF68033536009E0FB7894
:1046E800022B06D17B6803F580631A4641F270738A
:1046F8005360002318460C37BD465DF8047B7047AD
:1047080080B584B000AF78607B6803F588631B6868
:10471800FB60FB6823F02E03FB607B6803F588636E
:104728001A46FB6843F4807313600A20FCF72EFBDB
:104738007B6803F588631A46FB6823F4807313606B
:10474800002318461037BD4680BD80B485B000AF41
:1047580078600B46FB707B6803F588631B68FB6019
:10476800FB6823F02E03FB60FB6803F48053002BE7
:104778000AD1FB78012B07D17B6803F588631A46B9
:10478800FB6843F480531360FB6803F48053B3F56C
:10479800805F0AD1FB78002B07D17B6803F588631B
:1047A8001A46FB6823F48053136000231846143715
:1047B800BD465DF8047B704780B485B000AF786073
:1047C8007B6803F588631B68FB60FB685B0C03F080
:1047D800030318461437BD465DF8047B704780B460
:1047E80083B000AF78607B6803F580639B689BB2F9
:1047F80018460C37BD465DF8047B704780B483B01B
:1048080000AF7860084611461A460346FB700B460F
:10481800BB7013467B70FB785A017B68134403F521
:10482800A0631A464FF0FF3393603B7D032B00F2E1
:10483800868001A252F823F051480008FD4800087C
:1048480051480008BD480008FB785A017B681344AA
:1048580003F5A0631A4640F29D43D36097F90230EE
:10486800002B11DAFB785A017B68134403F5A06327
:104878001946FB785A017B68134403F5A063DB688B
:1048880043F48073CB6055E07B68B3F1A04F51D0FF
:10489800FB785A017B68134403F5A0631946FB783B
:1048A8005A017B68134403F5A063DB6843F0600397
:1048B800CB603FE0FB785A017B68134403F5A063A3
:1048C8001A4640F29D63D36097F90230002B33DA21
:1048D800FB785A017B68134403F5A0631946FB78FB
:1048E8005A017B68134403F5A063DB6843F48073C3
:1048F800CB6021E0FB785A017B68134403F5A06381
:104908001A4640F22523D36097F90230002B15DAB6
:10491800FB785A017B68134403F5A0631946FB78BA
:104928005A017B68134403F5A063DB6843F4C07342
:10493800CB6003E000BF02E000BF00E000BF7B687F
:1049480003F5806318467B6803F580639B69FA78F2
:10495800012101FA02F2134383617B689B6943F0EA
:1049680000727B689A61FB785A017B68134403F5EF
:10497800A06319467B789B0503F0FE52BB78DB02E7
:1049880003F4F0431A4397F90230002B02DA4FF48C
:10499800004300E000231A433B7C022B02D14FF472
:1049A800003300E000231A433B7D9B0403F44023BB
:1049B8001A433B8BC3F30A0313430B603B7D032B62
:1049C80010D1FB785A017B68134403F5A06319469C
:1049D800FB785A017B68134403F5A0631B6843F016
:1049E80000530B60002318460C37BD465DF8047B66
:1049F800704700BF80B58AB002AFF860B96013464F
:104A0800FB7100237B7700237B830023FB834FF418
:104A180080733B8300237B61FB68B3F1A04F2BD0ED
:104A2800BB681B79002B27D1FB79002B0BD1BB6806
:104A38005B79012B07D1BB685B781946F86800F0F1
:104A48000FFA00230DE1FB79012B15D1BB685B78C8
:104A58005A01FB68134403F5A0631946BB685B78E9
:104A68005A01FB68134403F5A063DB6823F0600375
:104A7800CB60BB6800225A71BB681B69002B19D038
:104A8800BB681B69BA6812891344013BBA6812896A
:104A9800B3FBF2F3FB83FA8B3B8B9A420CD93B8B2B
:104AA800FB83FB8BBA68128902FB03F31A46BB68C7
:104AB8001A6101E00123FB83BB68DB78002B07D078
:104AC800FB8BBA68128902FB03F31A46BB681A61AA
:104AD800BB685B785A01FB68134403F5A063194669
:104AE800BB681B69C3F31202FB8BDB0418465F4BE0
:104AF80003401A43BB689B7A5B0703F0C043134328
:104B08000B61FB79002B0AD0BB685B785A01FB6804
:104B1800134403F5A0631A46BB68DB685361FB685E
:104B280003F580639B6803F00103002B0CBF01238E
:104B38000023DBB27B77BB685B785A01FB681344C0
:104B480003F5A0631946BB685B785A01FB681344F8
:104B580003F5A0631B6823F000530B60BB685B7808
:104B68005A01FB68134403F5A0631946BB685B78D8
:104B78005A01FB68134403F5A0631B687A7F520748
:104B880013430B60BB685B785A01FB68134403F559
:104B9800A0631B687B617B6923F080437B617B6931
:104BA80043F000437B61BB685B785A01FB681344A0
:104BB80003F5A0631A467B691360FB79002B4FD17C
:104BC800BB68DB78002B4BD1BB681B69002B47D037
:104BD800BB68DB79032B31D801A252F823F000BF60
:104BE800F94B00081D4C0008F94B00081D4C000843
:104BF800BB681B6903339B087B837A8BFB68DB6A82
:104C08009BB29A421CD9FB689B6943F02002FB685F
:104C18009A6115E0BB681B6903339B087B837A8B19
:104C2800FB6803F580631B699BB29A420AD9FB684B
:104C38009B6943F08062FB689A6103E000BF02E071
:104C480000BF00E000BFBB68D968BB685A78BB6882
:104C58001B6998B2002300930346F868FFF7B6FB78
:104C6800002318462037BD4680BD00BF0000F81F4E
:104C780080B483B000AF78607B6803F580635B69BC
:104C88009BB218460C37BD465DF8047B704780B46C
:104C980085B000AF78600B46FB700023FB60FB78A3
:104CA8005A017B68134403F5A0631B689B0C03F04F
:104CB8000303002B0BD0FB785A017B68134403F5E0
:104CC800A0631B689B0C03F00303022B60D1FB78E5
:104CD8005A017B68134403F5A0631946FB785A010F
:104CE8007B68134403F5A0631B6843F080430B60A3
:104CF8007B68DB6A03F47F03002B35D1FB785A010C
:104D08007B68134403F5A0631946FB785A017B6856
:104D1800134403F5A0631B6823F000430B60FB7882
:104D28005A017B68134403F5A0631946FB785A01BE
:104D38007B68134403F5A0631B6843F000430B60D2
:104D4800FB680133FB60FB68B3F57A7F1ED8FB78FC
:104D58005A017B68134403F5A0631B6803F0004302
:104D6800B3F1004FECD074E0FB785A017B68134430
:104D780003F5A0631946FB785A017B68134403F5D1
:104D8800A0631B6843F000430B6062E000BF60E073
:104D9800FB785A017B68134403F5A0631946FB7836
:104DA8005A017B68134403F5A0631B6843F08043F2
:104DB8000B607B6803F580631B699BB2002B35D1C0
:104DC800FB785A017B68134403F5A0631946FB7806
:104DD8005A017B68134403F5A0631B6823F0004362
:104DE8000B60FB785A017B68134403F5A0631946EE
:104DF800FB785A017B68134403F5A0631B6843F0F2
:104E080000430B60FB680133FB60FB68B3F57A7FF6
:104E18001ED8FB785A017B68134403F5A0631B680E
:104E280003F00043B3F1004FECD012E0FB785A01D5
:104E38007B68134403F5A0631946FB785A017B6825
:104E4800134403F5A0631B6843F000430B6000E0C4
:104E580000BF002318461437BD465DF8047B704731
:104E680080B485B000AF78600B46FB700123FB73FC
:104E78000023BB60FB785A017B68134403F5A063E9
:104E88001A46FB7BDB041946124B0B4043F00043E8
:104E98001361FB785A017B68134403F5A0631B6810
:104EA800BB60BB6823F08043BB60BB6843F0004332
:104EB800BB60FB785A017B68134403F5A0631A466C
:104EC800BB681360002318461437BD465DF8047BA1
:104ED800704700BF0000F81F80B586B000AF78604B
:104EE80000233B617868FFF7F0F910217868FFF735
:104EF80025FA7868FFF748FA0023FB751FE0FB7D69
:104F08005A017B68134403F5A0631B68FB60FB68C8
:104F180043F08043FB60FB6823F00043FB60FB68C1
:104F280023F40043FB60FB7D5A017B68134403F5BF
:104F3800A0631A46FB681360FB7D0133FB75FB7D9C
:104F48000F2BDCD90023FB7534E0FB7D5A017B680D
:104F5800134403F5A0631B68FB60FB6843F08043C0
:104F6800FB60FB6843F00043FB60FB6823F40043ED
:104F7800FB60FB7D5A017B68134403F5A0631A4666
:104F8800FB6813603B6901333B613B69B3F57A7F8A
:104F98000CD8FB7D5A017B68134403F5A0631B689A
:104FA80003F00043B3F1004FECD000E000BFFB7DFD
:104FB8000133FB75FB7D0F2BC7D97B6803F5806335
:104FC8001A464FF0FF3353617B684FF0FF325A6146
:104FD8007868FFF769F9002318461837BD4680BD81
:104FE80080B500AF0449054805F034F903461A4670
:104FF800034B1A7000BF80BD4C060020CCAC0008E3
:10500800B00A002080B400AF00231846BD465DF802
:10501800047B704780B483B000AF0346FB71002364
:1050280018460C37BD465DF8047B704780B584B0E0
:1050380000AF0346FB710123FB73FB79194608484F
:1050480000F029FE0346002B02D00023FB7301E089
:105058000123FB73FB7B18461037BD4680BD00BF9C
:10506800B40A002080B594B002AFB9607A603B60A2
:105078000346FB73012387F84730F97B3B680093AD
:10508800BB687A68124800F04FFE0346002B03D134
:10509800002387F8473015E007F11002FB7B19461B
:1050A8000B4800F01DFE7B7F282B03D03A2B01D044
:1050B800042B03D1032387F8473003E0012387F843
:1050C800473000BF97F8473018464837BD4680BD7F
:1050D800B40A002080B594B002AFB9607A603B6032
:1050E8000346FB73012387F84730F97B3B6800933D
:1050F800BB687A68174800F080FE0346002B03D18E
:10510800002387F847301FE007F11002FB7B1946A0
:10511800104800F0E5FD7B7F272B09D0272B02DC08
:10512800042B09D00CE0282B06D03A2B04D007E03A
:10513800022387F8473007E0032387F8473003E066
:10514800012387F8473000BF97F84730184648379B
:10515800BD4680BDB40A002080B590B000AF0346BC
:105168003A60FB710B46BB71012387F83F30BB796E
:10517800032B52D801A252F823F000BF9551000822
:105188009D510008C7510008F3510008002387F813
:105198003F3045E007F10802FB791946234800F043
:1051A8009FFD0346002B06D1FA683B681A6000236E
:1051B80087F83F3034E0012387F83F3030E007F1CB
:1051C8000802FB791946194800F08AFD0346002BAE
:1051D80007D13B8A1A463B681A60002387F83F309C
:1051E8001EE0012387F83F301AE007F10802FB7937
:1051F80019460E4800F074FD0346002B09D13B8A7E
:105208005B0A9BB21A463B681A60002387F83F3056
:1052180006E0012387F83F3002E0042387F83F3097
:1052280097F83F3018464037BD4680BDB40A002085
:1052380090B589B004AF78600023BB730223FB7379
:105248007B68D3F87433197950230622786801F003
:105258003DFC0346BB73BB7BFF2B02D10223FB73D0
:105268000BE1BB7B1946786801F014FC7B68D3F826
:1052780074434FF4807005F0A9FB0346E3617B6833
:10528800D3F87433DB69BB607B6893F81F33194626
:105298007A681A2303FB01F3134403F552731B784E
:1052A8005BB2002B1CDA7B6893F81F3319467A68C7
:1052B8001A2303FB01F3134403F552731A78BB68EE
:1052C800DA717B6893F81F3319467A681A2303FB4F
:1052D80001F3134403F24A331A88BB685A811BE06E
:1052E8007B6893F81F3319467A681A2303FB01F386
:1052F800134403F552731A78BB689A717B6893F864
:105308001F3319467A681A2303FB01F3134403F287
:105318004A331A88BB681A817B6893F81F33194689
:105328007A681A2303FB01F3134403F554731B78BB
:105338005BB2002B1CDA7B6893F81F3319467A6836
:105348001A2303FB01F3134403F554731A78BB685B
:10535800DA717B6893F81F3319467A681A2303FBBE
:1053680001F3134403F252331A88BB685A811BE0D5
:105378007B6893F81F3319467A681A2303FB01F3F5
:10538800134403F554731A78BB689A717B6893F8D1
:105398001F3319467A681A2303FB01F3134403F2F7
:1053A80052331A88BB681A81BB680022A3F8F82018
:1053B800BB680022A3F8FA20BB6800221A73BB68F6
:1053C80000225A73BB6800229A73BB689B791946FE
:1053D800786802F016FC03461A46BB685A71BB6827
:1053E800DB791946786802F00CFC03461A46BB685C
:1053F8001A71786800F0A6FDBB6890336822002116
:10540800184605F0FEFABB685979BB6898797B683D
:1054180093F81C437B6893F81D33BA68128902928B
:1054280002220192009323460246786802F0BAFBF2
:10543800BB681979BB68D8797B6893F81C437B688B
:1054480093F81D33BA68528902920222019200939E
:1054580023460246786802F0A5FBBB681B79002248
:105468001946786805F0F2F9BB685B79002219469D
:10547800786805F0EBF90023FB73FB7B18461437BB
:10548800BD4690BD80B584B000AF78607B68D3F826
:105498007433DB69FB60FB685B79002B0ED0FB681B
:1054A8005B791946786802F09CFBFB685B791946C2
:1054B800786802F0C6FBFB6800225A71FB681B790A
:1054C800002B0ED0FB681B791946786802F089FB1F
:1054D800FB681B791946786802F0B3FBFB68002269
:1054E8001A717B68D3F87433DB69002B0BD07B68A7
:1054F800D3F87433DB69184605F070FA7B68D3F883
:1055080074330022DA61002318461037BD4680BD87
:1055180080B584B000AF78607B68D3F87433DB69FA
:10552800BB600123FB73BB689B7B022B04D0032B5E
:1055380039D0002B00D045E0BB681946786800F0E8
:10554800E2FC0346FB73FB7B032B04D1BB68002200
:105558001A600023FB73FB7B002B30D1BB681B68F0
:10556800DBB201331A46BB681A600023BB7314E030
:10557800BB7BBA68342101FB03F313449233022244
:105588001A70BB7BBA68342101FB03F31344C1339F
:1055980000221A70BB7B0133BB73BA7BBB681B68E4
:1055A8009A42E5D30BE00021786801F0D0FE03466B
:1055B800002B06D1BB68DA7BBB689A7301E000BF99
:1055C80000E000BFFB7B18461037BD4680BD0000D9
:1055D80080B586B000AF78607B68D3F87433DB6938
:1055E8003B610123FB750123FB730123BB733B69FB
:1055F8001B7B002B03D0012B00F0708271E23B690A
:10560800B3F8F8301A463B691B689A4280F04E821C
:105618003B69B3F8F83019463A69342303FB01F3C0
:105628001344913301221A703B69B3F8F8301946D4
:105638003A69342303FB01F3134490331B78082B96
:1056480000F2428201A252F823F000BF7956000806
:10565800D15A00083F570008C35800089D56000853
:105668008F590008D15A0008D15A0008A35A0008D7
:105678003B69B3F8F83019463A69342303FB01F360
:105688001344903304221A707B68D3F8B8233B691B
:10569800C3F8FC203B69B3F8F830D9B23B69B3F8DA
:1056A800F8301A46342303FB02F398333A6913445B
:1056B80007331A46786800F068FF0346FB73FB7BE4
:1056C800002B0BD13B69B3F8F83019463A693423FB
:1056D80003FB01F31344903302221A70FB7B022B65
:1056E8000CD13B69B3F8F83019463A69342303FB07
:1056F80001F31344903305221A70E7E1FB7B042B76
:1057080040F0E4813B69B3F8F83019463A6934232C
:1057180003FB01F31344903301221A703B69B3F879
:10572800F83019463A69342303FB01F313449133E3
:1057380002221A70CAE13B69B3F8F830DBB21946A5
:10574800786800F063FE0346BB73BB7B002B49D12E
:105758003B69B3F8F83019463A69342303FB01F37F
:10576800134492331B78002B0CD03B69B3F8F83004
:1057780019463A69342303FB01F31344C133012268
:105788001A700BE03B69B3F8F83019463A693423CC
:1057980003FB01F31344C13300221A703B69B3F8C9
:1057A800F83019463A69342303FB01F31344903364
:1057B80003221A703B69B3F8F83019463A69342362
:1057C80003FB01F31344913300221A703B69B3F8C9
:1057D800F83019463A69342303FB01F31344923332
:1057E80000221A70BB7B022B4AD13B69B3F8F83010
:1057F80019463A69342303FB01F3134492331B78A7
:10580800022B0CD03B69B3F8F83019463A693423B7
:1058180003FB01F31344C13301221A700BE03B6907
:10582800B3F8F83019463A69342303FB01F31344FB
:10583800C13300221A703B69B3F8F83019463A6947
:10584800342303FB01F31344903305221A703B6998
:10585800B3F8F83019463A69342303FB01F31344CB
:10586800913301221A703B69B3F8F83019463A6946
:10587800342303FB01F31344923302221A7027E105
:10588800BB7B042B40F024813B69B3F8F830194600
:105898003A69342303FB01F31344903301221A704D
:1058A8003B69B3F8F83019463A69342303FB01F32E
:1058B8001344913302221A700AE13B69B3F8F830B5
:1058C800D9B23B69B3F8F8301A46342303FB02F324
:1058D80090333A69134404331A46786800F0D9FDC6
:1058E8000346FB73FB7B002B20D13B69B3F8F830F0
:1058F80019463A69342303FB01F313449033012218
:105908001A703B69B3F8F83019463A69342303FB37
:1059180001F31344913300221A703B69B3F8F8304D
:1059280001339AB23B69A3F8F820D3E0FB7B022B42
:105938000CD13B69B3F8F83019463A69342303FBB4
:1059480001F31344903305221A70C3E0FB7B042B48
:1059580040F0C0803B69B3F8F83019463A693423FF
:1059680003FB01F31344903301221A703B69B3F827
:10597800F83019463A69342303FB01F31344913391
:1059880002221A70A6E03B69B3F8F830D9B23B6935
:10599800B3F8F8301A46342303FB02F398333A6914
:1059A800134404331A46786800F091FE0346FB73EB
:1059B800FB7B002B45D13B69B3F8F83019463A69AF
:1059C800342303FB01F313449C331B78062B0CD0C0
:1059D8003B69B3F8F83019463A69342303FB01F3FD
:1059E80013449C331B78022B17D17B68D3F8B82358
:1059F8003B69D3F8FC30D31A42F20F7293420CD8A9
:105A08003B69B3F8F83019463A69342303FB01F3CC
:105A18001344903302221A705FE03B69B3F8F83000
:105A280019463A69342303FB01F3134490330122E6
:105A38001A703B69B3F8F83001339AB23B69A3F89E
:105A4800F820FB7B022B0CD13B69B3F8F8301946E0
:105A58003A69342303FB01F31344903308221A7084
:105A68003AE0FB7B042B37D13B69B3F8F830194691
:105A78003A69342303FB01F31344903301221A706B
:105A88003B69B3F8F83019463A69342303FB01F34C
:105A98001344913302221A701EE03B69B3F8F830C0
:105AA80001339AB23B69A3F8F82016E03B6900225B
:105AB800A3F8F8203B6901221A737B68D3F8C43332
:105AC8000221786898470CE000BF0AE000BF08E0B0
